{
  "contractName": "Bridge",
  "abi": [
    {
      "inputs": [],
      "stateMutability": "nonpayable",
      "type": "constructor"
    },
    {
      "anonymous": false,
      "inputs": [
        {
          "indexed": true,
          "internalType": "address",
          "name": "owner",
          "type": "address"
        },
        {
          "indexed": true,
          "internalType": "address",
          "name": "approved",
          "type": "address"
        },
        {
          "indexed": true,
          "internalType": "uint256",
          "name": "tokenId",
          "type": "uint256"
        }
      ],
      "name": "Approval",
      "type": "event"
    },
    {
      "anonymous": false,
      "inputs": [
        {
          "indexed": true,
          "internalType": "address",
          "name": "owner",
          "type": "address"
        },
        {
          "indexed": true,
          "internalType": "address",
          "name": "operator",
          "type": "address"
        },
        {
          "indexed": false,
          "internalType": "bool",
          "name": "approved",
          "type": "bool"
        }
      ],
      "name": "ApprovalForAll",
      "type": "event"
    },
    {
      "anonymous": false,
      "inputs": [
        {
          "indexed": true,
          "internalType": "address",
          "name": "previousOwner",
          "type": "address"
        },
        {
          "indexed": true,
          "internalType": "address",
          "name": "newOwner",
          "type": "address"
        }
      ],
      "name": "OwnershipTransferred",
      "type": "event"
    },
    {
      "anonymous": false,
      "inputs": [
        {
          "indexed": true,
          "internalType": "address",
          "name": "from",
          "type": "address"
        },
        {
          "indexed": true,
          "internalType": "address",
          "name": "to",
          "type": "address"
        },
        {
          "indexed": true,
          "internalType": "uint256",
          "name": "tokenId",
          "type": "uint256"
        }
      ],
      "name": "Transfer",
      "type": "event"
    },
    {
      "inputs": [
        {
          "internalType": "address",
          "name": "to",
          "type": "address"
        },
        {
          "internalType": "uint256",
          "name": "tokenId",
          "type": "uint256"
        }
      ],
      "name": "approve",
      "outputs": [],
      "stateMutability": "nonpayable",
      "type": "function"
    },
    {
      "inputs": [
        {
          "internalType": "address",
          "name": "owner",
          "type": "address"
        }
      ],
      "name": "balanceOf",
      "outputs": [
        {
          "internalType": "uint256",
          "name": "",
          "type": "uint256"
        }
      ],
      "stateMutability": "view",
      "type": "function"
    },
    {
      "inputs": [
        {
          "internalType": "uint256",
          "name": "tokenId",
          "type": "uint256"
        }
      ],
      "name": "getApproved",
      "outputs": [
        {
          "internalType": "address",
          "name": "",
          "type": "address"
        }
      ],
      "stateMutability": "view",
      "type": "function"
    },
    {
      "inputs": [
        {
          "internalType": "address",
          "name": "owner",
          "type": "address"
        },
        {
          "internalType": "address",
          "name": "operator",
          "type": "address"
        }
      ],
      "name": "isApprovedForAll",
      "outputs": [
        {
          "internalType": "bool",
          "name": "",
          "type": "bool"
        }
      ],
      "stateMutability": "view",
      "type": "function"
    },
    {
      "inputs": [],
      "name": "name",
      "outputs": [
        {
          "internalType": "string",
          "name": "",
          "type": "string"
        }
      ],
      "stateMutability": "view",
      "type": "function"
    },
    {
      "inputs": [],
      "name": "owner",
      "outputs": [
        {
          "internalType": "address",
          "name": "",
          "type": "address"
        }
      ],
      "stateMutability": "view",
      "type": "function"
    },
    {
      "inputs": [
        {
          "internalType": "uint256",
          "name": "tokenId",
          "type": "uint256"
        }
      ],
      "name": "ownerOf",
      "outputs": [
        {
          "internalType": "address",
          "name": "",
          "type": "address"
        }
      ],
      "stateMutability": "view",
      "type": "function"
    },
    {
      "inputs": [],
      "name": "renounceOwnership",
      "outputs": [],
      "stateMutability": "nonpayable",
      "type": "function"
    },
    {
      "inputs": [
        {
          "internalType": "address",
          "name": "from",
          "type": "address"
        },
        {
          "internalType": "address",
          "name": "to",
          "type": "address"
        },
        {
          "internalType": "uint256",
          "name": "tokenId",
          "type": "uint256"
        }
      ],
      "name": "safeTransferFrom",
      "outputs": [],
      "stateMutability": "nonpayable",
      "type": "function"
    },
    {
      "inputs": [
        {
          "internalType": "address",
          "name": "from",
          "type": "address"
        },
        {
          "internalType": "address",
          "name": "to",
          "type": "address"
        },
        {
          "internalType": "uint256",
          "name": "tokenId",
          "type": "uint256"
        },
        {
          "internalType": "bytes",
          "name": "data",
          "type": "bytes"
        }
      ],
      "name": "safeTransferFrom",
      "outputs": [],
      "stateMutability": "nonpayable",
      "type": "function"
    },
    {
      "inputs": [
        {
          "internalType": "address",
          "name": "operator",
          "type": "address"
        },
        {
          "internalType": "bool",
          "name": "approved",
          "type": "bool"
        }
      ],
      "name": "setApprovalForAll",
      "outputs": [],
      "stateMutability": "nonpayable",
      "type": "function"
    },
    {
      "inputs": [
        {
          "internalType": "bytes4",
          "name": "interfaceId",
          "type": "bytes4"
        }
      ],
      "name": "supportsInterface",
      "outputs": [
        {
          "internalType": "bool",
          "name": "",
          "type": "bool"
        }
      ],
      "stateMutability": "view",
      "type": "function"
    },
    {
      "inputs": [],
      "name": "symbol",
      "outputs": [
        {
          "internalType": "string",
          "name": "",
          "type": "string"
        }
      ],
      "stateMutability": "view",
      "type": "function"
    },
    {
      "inputs": [
        {
          "internalType": "uint256",
          "name": "tokenId",
          "type": "uint256"
        }
      ],
      "name": "tokenURI",
      "outputs": [
        {
          "internalType": "string",
          "name": "",
          "type": "string"
        }
      ],
      "stateMutability": "view",
      "type": "function"
    },
    {
      "inputs": [
        {
          "internalType": "address",
          "name": "from",
          "type": "address"
        },
        {
          "internalType": "address",
          "name": "to",
          "type": "address"
        },
        {
          "internalType": "uint256",
          "name": "tokenId",
          "type": "uint256"
        }
      ],
      "name": "transferFrom",
      "outputs": [],
      "stateMutability": "nonpayable",
      "type": "function"
    },
    {
      "inputs": [
        {
          "internalType": "address",
          "name": "newOwner",
          "type": "address"
        }
      ],
      "name": "transferOwnership",
      "outputs": [],
      "stateMutability": "nonpayable",
      "type": "function"
    },
    {
      "inputs": [
        {
          "internalType": "address",
          "name": "_to",
          "type": "address"
        },
        {
          "internalType": "uint256",
          "name": "_tokenId",
          "type": "uint256"
        },
        {
          "internalType": "string",
          "name": "_tokenURI",
          "type": "string"
        }
      ],
      "name": "bridgeMint",
      "outputs": [],
      "stateMutability": "nonpayable",
      "type": "function"
    },
    {
      "inputs": [
        {
          "internalType": "address",
          "name": "_owner",
          "type": "address"
        }
      ],
      "name": "tokenOfOwner",
      "outputs": [
        {
          "internalType": "uint256[]",
          "name": "",
          "type": "uint256[]"
        }
      ],
      "stateMutability": "view",
      "type": "function"
    },
    {
      "inputs": [
        {
          "internalType": "uint256",
          "name": "tokenId",
          "type": "uint256"
        }
      ],
      "name": "getTokenURI",
      "outputs": [
        {
          "internalType": "string",
          "name": "",
          "type": "string"
        }
      ],
      "stateMutability": "view",
      "type": "function"
    }
  ],
  "bytecode": "0x60806040523480156200001157600080fd5b506040518060400160405280600981526020017f4272696467654e465400000000000000000000000000000000000000000000008152506040518060400160405280600681526020017f425249444745000000000000000000000000000000000000000000000000000081525081600090816200008f919062000412565b508060019081620000a1919062000412565b505050620000c4620000b8620000ca60201b60201c565b620000d260201b60201c565b620004f9565b600033905090565b6000600760009054906101000a900473ffffffffffffffffffffffffffffffffffffffff16905081600760006101000a81548173ffffffffffffffffffffffffffffffffffffffff021916908373ffffffffffffffffffffffffffffffffffffffff1602179055508173ffffffffffffffffffffffffffffffffffffffff168173ffffffffffffffffffffffffffffffffffffffff167f8be0079c531659141344cd1fd0a4f28419497f9722a3daafe3b4186f6b6457e060405160405180910390a35050565b600081519050919050565b7f4e487b7100000000000000000000000000000000000000000000000000000000600052604160045260246000fd5b7f4e487b7100000000000000000000000000000000000000000000000000000000600052602260045260246000fd5b600060028204905060018216806200021a57607f821691505b60208210810362000230576200022f620001d2565b5b50919050565b60008190508160005260206000209050919050565b60006020601f8301049050919050565b600082821b905092915050565b6000600883026200029a7fffffffffffffffffffffffffffffffffffffffffffffffffffffffffffffffff826200025b565b620002a686836200025b565b95508019841693508086168417925050509392505050565b6000819050919050565b6000819050919050565b6000620002f3620002ed620002e784620002be565b620002c8565b620002be565b9050919050565b6000819050919050565b6200030f83620002d2565b620003276200031e82620002fa565b84845462000268565b825550505050565b600090565b6200033e6200032f565b6200034b81848462000304565b505050565b5b8181101562000373576200036760008262000334565b60018101905062000351565b5050565b601f821115620003c2576200038c8162000236565b62000397846200024b565b81016020851015620003a7578190505b620003bf620003b6856200024b565b83018262000350565b50505b505050565b600082821c905092915050565b6000620003e760001984600802620003c7565b1980831691505092915050565b6000620004028383620003d4565b9150826002028217905092915050565b6200041d8262000198565b67ffffffffffffffff811115620004395762000438620001a3565b5b62000445825462000201565b6200045282828562000377565b600060209050601f8311600181146200048a576000841562000475578287015190505b620004818582620003f4565b865550620004f1565b601f1984166200049a8662000236565b60005b82811015620004c4578489015182556001820191506020850194506020810190506200049d565b86831015620004e45784890151620004e0601f891682620003d4565b8355505b6001600288020188555050505b505050505050565b61319080620005096000396000f3fe608060405234801561001057600080fd5b50600436106101215760003560e01c806367d74de2116100ad578063a22cb46511610071578063a22cb4651461031a578063b88d4fde14610336578063c87b56dd14610352578063e985e9c514610382578063f2fde38b146103b257610121565b806367d74de21461028857806370a08231146102a4578063715018a6146102d45780638da5cb5b146102de57806395d89b41146102fc57610121565b806323b872dd116100f457806323b872dd146101c0578063294cdf0d146101dc5780633bb3a24d1461020c57806342842e0e1461023c5780636352211e1461025857610121565b806301ffc9a71461012657806306fdde0314610156578063081812fc14610174578063095ea7b3146101a4575b600080fd5b610140600480360381019061013b9190611df7565b6103ce565b60405161014d9190611e3f565b60405180910390f35b61015e6104b0565b60405161016b9190611eea565b60405180910390f35b61018e60048036038101906101899190611f42565b610542565b60405161019b9190611fb0565b60405180910390f35b6101be60048036038101906101b99190611ff7565b610588565b005b6101da60048036038101906101d59190612037565b61069f565b005b6101f660048036038101906101f1919061208a565b6106ff565b6040516102039190612175565b60405180910390f35b61022660048036038101906102219190611f42565b610796565b6040516102339190611eea565b60405180910390f35b61025660048036038101906102519190612037565b6107a8565b005b610272600480360381019061026d9190611f42565b6107c8565b60405161027f9190611fb0565b60405180910390f35b6102a2600480360381019061029d91906122cc565b61084e565b005b6102be60048036038101906102b9919061208a565b6108d5565b6040516102cb919061234a565b60405180910390f35b6102dc61098c565b005b6102e66109a0565b6040516102f39190611fb0565b60405180910390f35b6103046109ca565b6040516103119190611eea565b60405180910390f35b610334600480360381019061032f9190612391565b610a5c565b005b610350600480360381019061034b9190612472565b610a72565b005b61036c60048036038101906103679190611f42565b610ad4565b6040516103799190611eea565b60405180910390f35b61039c600480360381019061039791906124f5565b610be6565b6040516103a99190611e3f565b60405180910390f35b6103cc60048036038101906103c7919061208a565b610c7a565b005b60007f80ac58cd000000000000000000000000000000000000000000000000000000007bffffffffffffffffffffffffffffffffffffffffffffffffffffffff1916827bffffffffffffffffffffffffffffffffffffffffffffffffffffffff1916148061049957507f5b5e139f000000000000000000000000000000000000000000000000000000007bffffffffffffffffffffffffffffffffffffffffffffffffffffffff1916827bffffffffffffffffffffffffffffffffffffffffffffffffffffffff1916145b806104a957506104a882610cfd565b5b9050919050565b6060600080546104bf90612564565b80601f01602080910402602001604051908101604052809291908181526020018280546104eb90612564565b80156105385780601f1061050d57610100808354040283529160200191610538565b820191906000526020600020905b81548152906001019060200180831161051b57829003601f168201915b5050505050905090565b600061054d82610d67565b6004600083815260200190815260200160002060009054906101000a900473ffffffffffffffffffffffffffffffffffffffff169050919050565b6000610593826107c8565b90508073ffffffffffffffffffffffffffffffffffffffff168373ffffffffffffffffffffffffffffffffffffffff1603610603576040517f08c379a00000000000000000000000000000000000000000000000000000000081526004016105fa90612607565b60405180910390fd5b8073ffffffffffffffffffffffffffffffffffffffff16610622610db2565b73ffffffffffffffffffffffffffffffffffffffff16148061065157506106508161064b610db2565b610be6565b5b610690576040517f08c379a000000000000000000000000000000000000000000000000000000000815260040161068790612699565b60405180910390fd5b61069a8383610dba565b505050565b6106b06106aa610db2565b82610e73565b6106ef576040517f08c379a00000000000000000000000000000000000000000000000000000000081526004016106e69061272b565b60405180910390fd5b6106fa838383610f08565b505050565b6060600860008373ffffffffffffffffffffffffffffffffffffffff1673ffffffffffffffffffffffffffffffffffffffff16815260200190815260200160002080548060200260200160405190810160405280929190818152602001828054801561078a57602002820191906000526020600020905b815481526020019060010190808311610776575b50505050509050919050565b60606107a182610ad4565b9050919050565b6107c383838360405180602001604052806000815250610a72565b505050565b6000806107d483611201565b9050600073ffffffffffffffffffffffffffffffffffffffff168173ffffffffffffffffffffffffffffffffffffffff1603610845576040517f08c379a000000000000000000000000000000000000000000000000000000000815260040161083c90612797565b60405180910390fd5b80915050919050565b61085661123e565b61086083836112bc565b61086a82826114d9565b600860008473ffffffffffffffffffffffffffffffffffffffff1673ffffffffffffffffffffffffffffffffffffffff168152602001908152602001600020829080600181540180825580915050600190039060005260206000200160009091909190915055505050565b60008073ffffffffffffffffffffffffffffffffffffffff168273ffffffffffffffffffffffffffffffffffffffff1603610945576040517f08c379a000000000000000000000000000000000000000000000000000000000815260040161093c90612829565b60405180910390fd5b600360008373ffffffffffffffffffffffffffffffffffffffff1673ffffffffffffffffffffffffffffffffffffffff168152602001908152602001600020549050919050565b61099461123e565b61099e6000611546565b565b6000600760009054906101000a900473ffffffffffffffffffffffffffffffffffffffff16905090565b6060600180546109d990612564565b80601f0160208091040260200160405190810160405280929190818152602001828054610a0590612564565b8015610a525780601f10610a2757610100808354040283529160200191610a52565b820191906000526020600020905b815481529060010190602001808311610a3557829003601f168201915b5050505050905090565b610a6e610a67610db2565b838361160c565b5050565b610a83610a7d610db2565b83610e73565b610ac2576040517f08c379a0000000000000000000000000000000000000000000000000000000008152600401610ab99061272b565b60405180910390fd5b610ace84848484611778565b50505050565b6060610adf82610d67565b6000600660008481526020019081526020016000208054610aff90612564565b80601f0160208091040260200160405190810160405280929190818152602001828054610b2b90612564565b8015610b785780601f10610b4d57610100808354040283529160200191610b78565b820191906000526020600020905b815481529060010190602001808311610b5b57829003601f168201915b505050505090506000610b896117d4565b90506000815103610b9e578192505050610be1565b600082511115610bd3578082604051602001610bbb929190612885565b60405160208183030381529060405292505050610be1565b610bdc846117eb565b925050505b919050565b6000600560008473ffffffffffffffffffffffffffffffffffffffff1673ffffffffffffffffffffffffffffffffffffffff16815260200190815260200160002060008373ffffffffffffffffffffffffffffffffffffffff1673ffffffffffffffffffffffffffffffffffffffff16815260200190815260200160002060009054906101000a900460ff16905092915050565b610c8261123e565b600073ffffffffffffffffffffffffffffffffffffffff168173ffffffffffffffffffffffffffffffffffffffff1603610cf1576040517f08c379a0000000000000000000000000000000000000000000000000000000008152600401610ce89061291b565b60405180910390fd5b610cfa81611546565b50565b60007f01ffc9a7000000000000000000000000000000000000000000000000000000007bffffffffffffffffffffffffffffffffffffffffffffffffffffffff1916827bffffffffffffffffffffffffffffffffffffffffffffffffffffffff1916149050919050565b610d7081611853565b610daf576040517f08c379a0000000000000000000000000000000000000000000000000000000008152600401610da690612797565b60405180910390fd5b50565b600033905090565b816004600083815260200190815260200160002060006101000a81548173ffffffffffffffffffffffffffffffffffffffff021916908373ffffffffffffffffffffffffffffffffffffffff160217905550808273ffffffffffffffffffffffffffffffffffffffff16610e2d836107c8565b73ffffffffffffffffffffffffffffffffffffffff167f8c5be1e5ebec7d5bd14f71427d1e84f3dd0314c0f7b2291e5b200ac8c7c3b92560405160405180910390a45050565b600080610e7f836107c8565b90508073ffffffffffffffffffffffffffffffffffffffff168473ffffffffffffffffffffffffffffffffffffffff161480610ec15750610ec08185610be6565b5b80610eff57508373ffffffffffffffffffffffffffffffffffffffff16610ee784610542565b73ffffffffffffffffffffffffffffffffffffffff16145b91505092915050565b8273ffffffffffffffffffffffffffffffffffffffff16610f28826107c8565b73ffffffffffffffffffffffffffffffffffffffff1614610f7e576040517f08c379a0000000000000000000000000000000000000000000000000000000008152600401610f75906129ad565b60405180910390fd5b600073ffffffffffffffffffffffffffffffffffffffff168273ffffffffffffffffffffffffffffffffffffffff1603610fed576040517f08c379a0000000000000000000000000000000000000000000000000000000008152600401610fe490612a3f565b60405180910390fd5b610ffa8383836001611894565b8273ffffffffffffffffffffffffffffffffffffffff1661101a826107c8565b73ffffffffffffffffffffffffffffffffffffffff1614611070576040517f08c379a0000000000000000000000000000000000000000000000000000000008152600401611067906129ad565b60405180910390fd5b6004600082815260200190815260200160002060006101000a81549073ffffffffffffffffffffffffffffffffffffffff02191690556001600360008573ffffffffffffffffffffffffffffffffffffffff1673ffffffffffffffffffffffffffffffffffffffff168152602001908152602001600020600082825403925050819055506001600360008473ffffffffffffffffffffffffffffffffffffffff1673ffffffffffffffffffffffffffffffffffffffff16815260200190815260200160002060008282540192505081905550816002600083815260200190815260200160002060006101000a81548173ffffffffffffffffffffffffffffffffffffffff021916908373ffffffffffffffffffffffffffffffffffffffff160217905550808273ffffffffffffffffffffffffffffffffffffffff168473ffffffffffffffffffffffffffffffffffffffff167fddf252ad1be2c89b69c2b068fc378daa952ba7f163c4a11628f55a4df523b3ef60405160405180910390a46111fc83838360016119ba565b505050565b60006002600083815260200190815260200160002060009054906101000a900473ffffffffffffffffffffffffffffffffffffffff169050919050565b611246610db2565b73ffffffffffffffffffffffffffffffffffffffff166112646109a0565b73ffffffffffffffffffffffffffffffffffffffff16146112ba576040517f08c379a00000000000000000000000000000000000000000000000000000000081526004016112b190612aab565b60405180910390fd5b565b600073ffffffffffffffffffffffffffffffffffffffff168273ffffffffffffffffffffffffffffffffffffffff160361132b576040517f08c379a000000000000000000000000000000000000000000000000000000000815260040161132290612b17565b60405180910390fd5b61133481611853565b15611374576040517f08c379a000000000000000000000000000000000000000000000000000000000815260040161136b90612b83565b60405180910390fd5b611382600083836001611894565b61138b81611853565b156113cb576040517f08c379a00000000000000000000000000000000000000000000000000000000081526004016113c290612b83565b60405180910390fd5b6001600360008473ffffffffffffffffffffffffffffffffffffffff1673ffffffffffffffffffffffffffffffffffffffff16815260200190815260200160002060008282540192505081905550816002600083815260200190815260200160002060006101000a81548173ffffffffffffffffffffffffffffffffffffffff021916908373ffffffffffffffffffffffffffffffffffffffff160217905550808273ffffffffffffffffffffffffffffffffffffffff16600073ffffffffffffffffffffffffffffffffffffffff167fddf252ad1be2c89b69c2b068fc378daa952ba7f163c4a11628f55a4df523b3ef60405160405180910390a46114d56000838360016119ba565b5050565b6114e282611853565b611521576040517f08c379a000000000000000000000000000000000000000000000000000000000815260040161151890612c15565b60405180910390fd5b806006600084815260200190815260200160002090816115419190612de1565b505050565b6000600760009054906101000a900473ffffffffffffffffffffffffffffffffffffffff16905081600760006101000a81548173ffffffffffffffffffffffffffffffffffffffff021916908373ffffffffffffffffffffffffffffffffffffffff1602179055508173ffffffffffffffffffffffffffffffffffffffff168173ffffffffffffffffffffffffffffffffffffffff167f8be0079c531659141344cd1fd0a4f28419497f9722a3daafe3b4186f6b6457e060405160405180910390a35050565b8173ffffffffffffffffffffffffffffffffffffffff168373ffffffffffffffffffffffffffffffffffffffff160361167a576040517f08c379a000000000000000000000000000000000000000000000000000000000815260040161167190612eff565b60405180910390fd5b80600560008573ffffffffffffffffffffffffffffffffffffffff1673ffffffffffffffffffffffffffffffffffffffff16815260200190815260200160002060008473ffffffffffffffffffffffffffffffffffffffff1673ffffffffffffffffffffffffffffffffffffffff16815260200190815260200160002060006101000a81548160ff0219169083151502179055508173ffffffffffffffffffffffffffffffffffffffff168373ffffffffffffffffffffffffffffffffffffffff167f17307eab39ab6107e8899845ad3d59bd9653f200f220920489ca2b5937696c318360405161176b9190611e3f565b60405180910390a3505050565b611783848484610f08565b61178f848484846119c0565b6117ce576040517f08c379a00000000000000000000000000000000000000000000000000000000081526004016117c590612f91565b60405180910390fd5b50505050565b606060405180602001604052806000815250905090565b60606117f682610d67565b60006118006117d4565b90506000815111611820576040518060200160405280600081525061184b565b8061182a84611b47565b60405160200161183b929190612885565b6040516020818303038152906040525b915050919050565b60008073ffffffffffffffffffffffffffffffffffffffff1661187583611201565b73ffffffffffffffffffffffffffffffffffffffff1614159050919050565b60018111156119b457600073ffffffffffffffffffffffffffffffffffffffff168473ffffffffffffffffffffffffffffffffffffffff16146119285780600360008673ffffffffffffffffffffffffffffffffffffffff1673ffffffffffffffffffffffffffffffffffffffff16815260200190815260200160002060008282546119209190612fe0565b925050819055505b600073ffffffffffffffffffffffffffffffffffffffff168373ffffffffffffffffffffffffffffffffffffffff16146119b35780600360008573ffffffffffffffffffffffffffffffffffffffff1673ffffffffffffffffffffffffffffffffffffffff16815260200190815260200160002060008282546119ab9190613014565b925050819055505b5b50505050565b50505050565b60006119e18473ffffffffffffffffffffffffffffffffffffffff16611c15565b15611b3a578373ffffffffffffffffffffffffffffffffffffffff1663150b7a02611a0a610db2565b8786866040518563ffffffff1660e01b8152600401611a2c949392919061309d565b6020604051808303816000875af1925050508015611a6857506040513d601f19601f82011682018060405250810190611a6591906130fe565b60015b611aea573d8060008114611a98576040519150601f19603f3d011682016040523d82523d6000602084013e611a9d565b606091505b506000815103611ae2576040517f08c379a0000000000000000000000000000000000000000000000000000000008152600401611ad990612f91565b60405180910390fd5b805181602001fd5b63150b7a0260e01b7bffffffffffffffffffffffffffffffffffffffffffffffffffffffff1916817bffffffffffffffffffffffffffffffffffffffffffffffffffffffff191614915050611b3f565b600190505b949350505050565b606060006001611b5684611c38565b01905060008167ffffffffffffffff811115611b7557611b746121a1565b5b6040519080825280601f01601f191660200182016040528015611ba75781602001600182028036833780820191505090505b509050600082602001820190505b600115611c0a578080600190039150507f3031323334353637383961626364656600000000000000000000000000000000600a86061a8153600a8581611bfe57611bfd61312b565b5b04945060008503611bb5575b819350505050919050565b6000808273ffffffffffffffffffffffffffffffffffffffff163b119050919050565b600080600090507a184f03e93ff9f4daa797ed6e38ed64bf6a1f0100000000000000008310611c96577a184f03e93ff9f4daa797ed6e38ed64bf6a1f0100000000000000008381611c8c57611c8b61312b565b5b0492506040810190505b6d04ee2d6d415b85acef81000000008310611cd3576d04ee2d6d415b85acef81000000008381611cc957611cc861312b565b5b0492506020810190505b662386f26fc100008310611d0257662386f26fc100008381611cf857611cf761312b565b5b0492506010810190505b6305f5e1008310611d2b576305f5e1008381611d2157611d2061312b565b5b0492506008810190505b6127108310611d50576127108381611d4657611d4561312b565b5b0492506004810190505b60648310611d735760648381611d6957611d6861312b565b5b0492506002810190505b600a8310611d82576001810190505b80915050919050565b6000604051905090565b600080fd5b600080fd5b60007fffffffff0000000000000000000000000000000000000000000000000000000082169050919050565b611dd481611d9f565b8114611ddf57600080fd5b50565b600081359050611df181611dcb565b92915050565b600060208284031215611e0d57611e0c611d95565b5b6000611e1b84828501611de2565b91505092915050565b60008115159050919050565b611e3981611e24565b82525050565b6000602082019050611e546000830184611e30565b92915050565b600081519050919050565b600082825260208201905092915050565b60005b83811015611e94578082015181840152602081019050611e79565b60008484015250505050565b6000601f19601f8301169050919050565b6000611ebc82611e5a565b611ec68185611e65565b9350611ed6818560208601611e76565b611edf81611ea0565b840191505092915050565b60006020820190508181036000830152611f048184611eb1565b905092915050565b6000819050919050565b611f1f81611f0c565b8114611f2a57600080fd5b50565b600081359050611f3c81611f16565b92915050565b600060208284031215611f5857611f57611d95565b5b6000611f6684828501611f2d565b91505092915050565b600073ffffffffffffffffffffffffffffffffffffffff82169050919050565b6000611f9a82611f6f565b9050919050565b611faa81611f8f565b82525050565b6000602082019050611fc56000830184611fa1565b92915050565b611fd481611f8f565b8114611fdf57600080fd5b50565b600081359050611ff181611fcb565b92915050565b6000806040838503121561200e5761200d611d95565b5b600061201c85828601611fe2565b925050602061202d85828601611f2d565b9150509250929050565b6000806000606084860312156120505761204f611d95565b5b600061205e86828701611fe2565b935050602061206f86828701611fe2565b925050604061208086828701611f2d565b9150509250925092565b6000602082840312156120a05761209f611d95565b5b60006120ae84828501611fe2565b91505092915050565b600081519050919050565b600082825260208201905092915050565b6000819050602082019050919050565b6120ec81611f0c565b82525050565b60006120fe83836120e3565b60208301905092915050565b6000602082019050919050565b6000612122826120b7565b61212c81856120c2565b9350612137836120d3565b8060005b8381101561216857815161214f88826120f2565b975061215a8361210a565b92505060018101905061213b565b5085935050505092915050565b6000602082019050818103600083015261218f8184612117565b905092915050565b600080fd5b600080fd5b7f4e487b7100000000000000000000000000000000000000000000000000000000600052604160045260246000fd5b6121d982611ea0565b810181811067ffffffffffffffff821117156121f8576121f76121a1565b5b80604052505050565b600061220b611d8b565b905061221782826121d0565b919050565b600067ffffffffffffffff821115612237576122366121a1565b5b61224082611ea0565b9050602081019050919050565b82818337600083830152505050565b600061226f61226a8461221c565b612201565b90508281526020810184848401111561228b5761228a61219c565b5b61229684828561224d565b509392505050565b600082601f8301126122b3576122b2612197565b5b81356122c384826020860161225c565b91505092915050565b6000806000606084860312156122e5576122e4611d95565b5b60006122f386828701611fe2565b935050602061230486828701611f2d565b925050604084013567ffffffffffffffff81111561232557612324611d9a565b5b6123318682870161229e565b9150509250925092565b61234481611f0c565b82525050565b600060208201905061235f600083018461233b565b92915050565b61236e81611e24565b811461237957600080fd5b50565b60008135905061238b81612365565b92915050565b600080604083850312156123a8576123a7611d95565b5b60006123b685828601611fe2565b92505060206123c78582860161237c565b9150509250929050565b600067ffffffffffffffff8211156123ec576123eb6121a1565b5b6123f582611ea0565b9050602081019050919050565b6000612415612410846123d1565b612201565b9050828152602081018484840111156124315761243061219c565b5b61243c84828561224d565b509392505050565b600082601f83011261245957612458612197565b5b8135612469848260208601612402565b91505092915050565b6000806000806080858703121561248c5761248b611d95565b5b600061249a87828801611fe2565b94505060206124ab87828801611fe2565b93505060406124bc87828801611f2d565b925050606085013567ffffffffffffffff8111156124dd576124dc611d9a565b5b6124e987828801612444565b91505092959194509250565b6000806040838503121561250c5761250b611d95565b5b600061251a85828601611fe2565b925050602061252b85828601611fe2565b9150509250929050565b7f4e487b7100000000000000000000000000000000000000000000000000000000600052602260045260246000fd5b6000600282049050600182168061257c57607f821691505b60208210810361258f5761258e612535565b5b50919050565b7f4552433732313a20617070726f76616c20746f2063757272656e74206f776e6560008201527f7200000000000000000000000000000000000000000000000000000000000000602082015250565b60006125f1602183611e65565b91506125fc82612595565b604082019050919050565b60006020820190508181036000830152612620816125e4565b9050919050565b7f4552433732313a20617070726f76652063616c6c6572206973206e6f7420746f60008201527f6b656e206f776e6572206f7220617070726f76656420666f7220616c6c000000602082015250565b6000612683603d83611e65565b915061268e82612627565b604082019050919050565b600060208201905081810360008301526126b281612676565b9050919050565b7f4552433732313a2063616c6c6572206973206e6f7420746f6b656e206f776e6560008201527f72206f7220617070726f76656400000000000000000000000000000000000000602082015250565b6000612715602d83611e65565b9150612720826126b9565b604082019050919050565b6000602082019050818103600083015261274481612708565b9050919050565b7f4552433732313a20696e76616c696420746f6b656e2049440000000000000000600082015250565b6000612781601883611e65565b915061278c8261274b565b602082019050919050565b600060208201905081810360008301526127b081612774565b9050919050565b7f4552433732313a2061646472657373207a65726f206973206e6f74206120766160008201527f6c6964206f776e65720000000000000000000000000000000000000000000000602082015250565b6000612813602983611e65565b915061281e826127b7565b604082019050919050565b6000602082019050818103600083015261284281612806565b9050919050565b600081905092915050565b600061285f82611e5a565b6128698185612849565b9350612879818560208601611e76565b80840191505092915050565b60006128918285612854565b915061289d8284612854565b91508190509392505050565b7f4f776e61626c653a206e6577206f776e657220697320746865207a65726f206160008201527f6464726573730000000000000000000000000000000000000000000000000000602082015250565b6000612905602683611e65565b9150612910826128a9565b604082019050919050565b60006020820190508181036000830152612934816128f8565b9050919050565b7f4552433732313a207472616e736665722066726f6d20696e636f72726563742060008201527f6f776e6572000000000000000000000000000000000000000000000000000000602082015250565b6000612997602583611e65565b91506129a28261293b565b604082019050919050565b600060208201905081810360008301526129c68161298a565b9050919050565b7f4552433732313a207472616e7366657220746f20746865207a65726f2061646460008201527f7265737300000000000000000000000000000000000000000000000000000000602082015250565b6000612a29602483611e65565b9150612a34826129cd565b604082019050919050565b60006020820190508181036000830152612a5881612a1c565b9050919050565b7f4f776e61626c653a2063616c6c6572206973206e6f7420746865206f776e6572600082015250565b6000612a95602083611e65565b9150612aa082612a5f565b602082019050919050565b60006020820190508181036000830152612ac481612a88565b9050919050565b7f4552433732313a206d696e7420746f20746865207a65726f2061646472657373600082015250565b6000612b01602083611e65565b9150612b0c82612acb565b602082019050919050565b60006020820190508181036000830152612b3081612af4565b9050919050565b7f4552433732313a20746f6b656e20616c7265616479206d696e74656400000000600082015250565b6000612b6d601c83611e65565b9150612b7882612b37565b602082019050919050565b60006020820190508181036000830152612b9c81612b60565b9050919050565b7f45524337323155524953746f726167653a2055524920736574206f66206e6f6e60008201527f6578697374656e7420746f6b656e000000000000000000000000000000000000602082015250565b6000612bff602e83611e65565b9150612c0a82612ba3565b604082019050919050565b60006020820190508181036000830152612c2e81612bf2565b9050919050565b60008190508160005260206000209050919050565b60006020601f8301049050919050565b600082821b905092915050565b600060088302612c977fffffffffffffffffffffffffffffffffffffffffffffffffffffffffffffffff82612c5a565b612ca18683612c5a565b95508019841693508086168417925050509392505050565b6000819050919050565b6000612cde612cd9612cd484611f0c565b612cb9565b611f0c565b9050919050565b6000819050919050565b612cf883612cc3565b612d0c612d0482612ce5565b848454612c67565b825550505050565b600090565b612d21612d14565b612d2c818484612cef565b505050565b5b81811015612d5057612d45600082612d19565b600181019050612d32565b5050565b601f821115612d9557612d6681612c35565b612d6f84612c4a565b81016020851015612d7e578190505b612d92612d8a85612c4a565b830182612d31565b50505b505050565b600082821c905092915050565b6000612db860001984600802612d9a565b1980831691505092915050565b6000612dd18383612da7565b9150826002028217905092915050565b612dea82611e5a565b67ffffffffffffffff811115612e0357612e026121a1565b5b612e0d8254612564565b612e18828285612d54565b600060209050601f831160018114612e4b5760008415612e39578287015190505b612e438582612dc5565b865550612eab565b601f198416612e5986612c35565b60005b82811015612e8157848901518255600182019150602085019450602081019050612e5c565b86831015612e9e5784890151612e9a601f891682612da7565b8355505b6001600288020188555050505b505050505050565b7f4552433732313a20617070726f766520746f2063616c6c657200000000000000600082015250565b6000612ee9601983611e65565b9150612ef482612eb3565b602082019050919050565b60006020820190508181036000830152612f1881612edc565b9050919050565b7f4552433732313a207472616e7366657220746f206e6f6e20455243373231526560008201527f63656976657220696d706c656d656e7465720000000000000000000000000000602082015250565b6000612f7b603283611e65565b9150612f8682612f1f565b604082019050919050565b60006020820190508181036000830152612faa81612f6e565b9050919050565b7f4e487b7100000000000000000000000000000000000000000000000000000000600052601160045260246000fd5b6000612feb82611f0c565b9150612ff683611f0c565b925082820390508181111561300e5761300d612fb1565b5b92915050565b600061301f82611f0c565b915061302a83611f0c565b925082820190508082111561304257613041612fb1565b5b92915050565b600081519050919050565b600082825260208201905092915050565b600061306f82613048565b6130798185613053565b9350613089818560208601611e76565b61309281611ea0565b840191505092915050565b60006080820190506130b26000830187611fa1565b6130bf6020830186611fa1565b6130cc604083018561233b565b81810360608301526130de8184613064565b905095945050505050565b6000815190506130f881611dcb565b92915050565b60006020828403121561311457613113611d95565b5b6000613122848285016130e9565b91505092915050565b7f4e487b7100000000000000000000000000000000000000000000000000000000600052601260045260246000fdfea2646970667358221220206fce010b8e98ed47c29a01583b8f9566806e1e4875f1dde96dd54f8d28ead164736f6c63430008110033",
  "immutableReferences": {},
  "source": "pragma solidity ^0.8.17;\n\nimport \"@openzeppelin/contracts/access/Ownable.sol\";\nimport \"@openzeppelin/contracts/token/ERC721/extensions/ERC721URIStorage.sol\";\n\ncontract Bridge is ERC721URIStorage, Ownable {\n\n    using Strings for uint256;\n\n    mapping(address => uint256[]) tokensOwned;\n\n    constructor() ERC721(\"BridgeNFT\", \"BRIDGE\") {\n   \n    }\n\n    function bridgeMint(address _to, uint256 _tokenId, string memory _tokenURI) public virtual onlyOwner() {\n        _mint(_to, _tokenId);\n        _setTokenURI(_tokenId, _tokenURI);\n        tokensOwned[_to].push(_tokenId);\n    }\n\n    function tokenOfOwner(address _owner) public view returns (uint256[] memory) {\n          return tokensOwned[_owner];\n    }\n\n    function getTokenURI(uint256 tokenId) public view virtual returns (string memory) {\n        return tokenURI(tokenId);\n\n    }\n\n\n\n}",
  "sourcePath": "/Users/sebastiancaso/Documents/crypto/nft-bridge/coh-nft-bridge/contracts/Bridge.sol",
  "compiler": {
    "name": "solc",
    "version": "0.8.17+commit.8df45f5f.Emscripten.clang"
  },
  "schemaVersion": "3.4.11",
  "updatedAt": "2023-01-16T19:58:10.257Z",
  "devdoc": {
    "kind": "dev",
    "methods": {
      "approve(address,uint256)": {
        "details": "See {IERC721-approve}."
      },
      "balanceOf(address)": {
        "details": "See {IERC721-balanceOf}."
      },
      "getApproved(uint256)": {
        "details": "See {IERC721-getApproved}."
      },
      "isApprovedForAll(address,address)": {
        "details": "See {IERC721-isApprovedForAll}."
      },
      "name()": {
        "details": "See {IERC721Metadata-name}."
      },
      "owner()": {
        "details": "Returns the address of the current owner."
      },
      "ownerOf(uint256)": {
        "details": "See {IERC721-ownerOf}."
      },
      "renounceOwnership()": {
        "details": "Leaves the contract without owner. It will not be possible to call `onlyOwner` functions anymore. Can only be called by the current owner. NOTE: Renouncing ownership will leave the contract without an owner, thereby removing any functionality that is only available to the owner."
      },
      "safeTransferFrom(address,address,uint256)": {
        "details": "See {IERC721-safeTransferFrom}."
      },
      "safeTransferFrom(address,address,uint256,bytes)": {
        "details": "See {IERC721-safeTransferFrom}."
      },
      "setApprovalForAll(address,bool)": {
        "details": "See {IERC721-setApprovalForAll}."
      },
      "supportsInterface(bytes4)": {
        "details": "See {IERC165-supportsInterface}."
      },
      "symbol()": {
        "details": "See {IERC721Metadata-symbol}."
      },
      "tokenURI(uint256)": {
        "details": "See {IERC721Metadata-tokenURI}."
      },
      "transferFrom(address,address,uint256)": {
        "details": "See {IERC721-transferFrom}."
      },
      "transferOwnership(address)": {
        "details": "Transfers ownership of the contract to a new account (`newOwner`). Can only be called by the current owner."
      }
    },
    "version": 1
  },
  "userdoc": {
    "kind": "user",
    "methods": {},
    "version": 1
  }
}