{
  "contractName": "Custody",
  "abi": [
    {
      "inputs": [],
      "stateMutability": "nonpayable",
      "type": "constructor"
    },
    {
      "anonymous": false,
      "inputs": [
        {
          "indexed": true,
          "internalType": "uint256",
          "name": "tokenId",
          "type": "uint256"
        },
        {
          "indexed": false,
          "internalType": "address",
          "name": "holder",
          "type": "address"
        }
      ],
      "name": "NFTCustody",
      "type": "event"
    },
    {
      "anonymous": false,
      "inputs": [
        {
          "indexed": true,
          "internalType": "address",
          "name": "previousOwner",
          "type": "address"
        },
        {
          "indexed": true,
          "internalType": "address",
          "name": "newOwner",
          "type": "address"
        }
      ],
      "name": "OwnershipTransferred",
      "type": "event"
    },
    {
      "inputs": [],
      "name": "fees",
      "outputs": [
        {
          "internalType": "uint256",
          "name": "",
          "type": "uint256"
        }
      ],
      "stateMutability": "view",
      "type": "function"
    },
    {
      "inputs": [
        {
          "internalType": "uint256",
          "name": "",
          "type": "uint256"
        }
      ],
      "name": "holdCustody",
      "outputs": [
        {
          "internalType": "address",
          "name": "nftContract",
          "type": "address"
        },
        {
          "internalType": "uint256",
          "name": "tokenId",
          "type": "uint256"
        },
        {
          "internalType": "address",
          "name": "owner",
          "type": "address"
        }
      ],
      "stateMutability": "view",
      "type": "function"
    },
    {
      "inputs": [],
      "name": "owner",
      "outputs": [
        {
          "internalType": "address",
          "name": "",
          "type": "address"
        }
      ],
      "stateMutability": "view",
      "type": "function"
    },
    {
      "inputs": [],
      "name": "renounceOwnership",
      "outputs": [],
      "stateMutability": "nonpayable",
      "type": "function"
    },
    {
      "inputs": [
        {
          "internalType": "address",
          "name": "newOwner",
          "type": "address"
        }
      ],
      "name": "transferOwnership",
      "outputs": [],
      "stateMutability": "nonpayable",
      "type": "function"
    },
    {
      "inputs": [
        {
          "internalType": "address",
          "name": "_nft_contract",
          "type": "address"
        },
        {
          "internalType": "uint256",
          "name": "_tokenId",
          "type": "uint256"
        }
      ],
      "name": "depositNFT",
      "outputs": [],
      "stateMutability": "payable",
      "type": "function"
    },
    {
      "inputs": [
        {
          "internalType": "uint256",
          "name": "_tokenId",
          "type": "uint256"
        }
      ],
      "name": "releaseNFT",
      "outputs": [],
      "stateMutability": "nonpayable",
      "type": "function"
    },
    {
      "inputs": [
        {
          "internalType": "address",
          "name": "",
          "type": "address"
        },
        {
          "internalType": "address",
          "name": "from",
          "type": "address"
        },
        {
          "internalType": "uint256",
          "name": "",
          "type": "uint256"
        },
        {
          "internalType": "bytes",
          "name": "",
          "type": "bytes"
        }
      ],
      "name": "onERC721Received",
      "outputs": [
        {
          "internalType": "bytes4",
          "name": "",
          "type": "bytes4"
        }
      ],
      "stateMutability": "pure",
      "type": "function"
    }
  ],
  "bytecode": "0x60806040526506d23ad5f80060025534801561001a57600080fd5b50600160008190555061003f61003461004460201b60201c565b61004c60201b60201c565b610112565b600033905090565b6000600160009054906101000a900473ffffffffffffffffffffffffffffffffffffffff16905081600160006101000a81548173ffffffffffffffffffffffffffffffffffffffff021916908373ffffffffffffffffffffffffffffffffffffffff1602179055508173ffffffffffffffffffffffffffffffffffffffff168173ffffffffffffffffffffffffffffffffffffffff167f8be0079c531659141344cd1fd0a4f28419497f9722a3daafe3b4186f6b6457e060405160405180910390a35050565b610d31806101216000396000f3fe60806040526004361061007b5760003560e01c80639af1d35a1161004e5780639af1d35a146101285780639b5b9b1814610153578063dd39bd211461016f578063f2fde38b146101ae5761007b565b8063150b7a02146100805780635e5ba8d7146100bd578063715018a6146100e65780638da5cb5b146100fd575b600080fd5b34801561008c57600080fd5b506100a760048036038101906100a29190610898565b6101d7565b6040516100b4919061095b565b60405180910390f35b3480156100c957600080fd5b506100e460048036038101906100df9190610976565b61025a565b005b3480156100f257600080fd5b506100fb610265565b005b34801561010957600080fd5b50610112610279565b60405161011f91906109b2565b60405180910390f35b34801561013457600080fd5b5061013d6102a3565b60405161014a91906109dc565b60405180910390f35b61016d600480360381019061016891906109f7565b6102a9565b005b34801561017b57600080fd5b5061019660048036038101906101919190610976565b610503565b6040516101a593929190610a37565b60405180910390f35b3480156101ba57600080fd5b506101d560048036038101906101d09190610a6e565b61056d565b005b60008073ffffffffffffffffffffffffffffffffffffffff168573ffffffffffffffffffffffffffffffffffffffff1614610247576040517f08c379a000000000000000000000000000000000000000000000000000000000815260040161023e90610af8565b60405180910390fd5b63150b7a0260e01b905095945050505050565b6102626105f0565b50565b61026d6105f0565b610277600061066e565b565b6000600160009054906101000a900473ffffffffffffffffffffffffffffffffffffffff16905090565b60025481565b6102b1610734565b60025434146102bf57600080fd5b3373ffffffffffffffffffffffffffffffffffffffff168273ffffffffffffffffffffffffffffffffffffffff16636352211e836040518263ffffffff1660e01b815260040161030f91906109dc565b602060405180830381865afa15801561032c573d6000803e3d6000fd5b505050506040513d601f19601f820116820180604052508101906103509190610b2d565b73ffffffffffffffffffffffffffffffffffffffff161461037057600080fd5b600060036000838152602001908152602001600020600101541461039357600080fd5b8173ffffffffffffffffffffffffffffffffffffffff166323b872dd3330846040518463ffffffff1660e01b81526004016103d093929190610b5a565b600060405180830381600087803b1580156103ea57600080fd5b505af11580156103fe573d6000803e3d6000fd5b5050505060405180606001604052808373ffffffffffffffffffffffffffffffffffffffff1681526020018281526020013373ffffffffffffffffffffffffffffffffffffffff168152506003600083815260200190815260200160002060008201518160000160006101000a81548173ffffffffffffffffffffffffffffffffffffffff021916908373ffffffffffffffffffffffffffffffffffffffff1602179055506020820151816001015560408201518160020160006101000a81548173ffffffffffffffffffffffffffffffffffffffff021916908373ffffffffffffffffffffffffffffffffffffffff1602179055509050506104ff610783565b5050565b60036020528060005260406000206000915090508060000160009054906101000a900473ffffffffffffffffffffffffffffffffffffffff16908060010154908060020160009054906101000a900473ffffffffffffffffffffffffffffffffffffffff16905083565b6105756105f0565b600073ffffffffffffffffffffffffffffffffffffffff168173ffffffffffffffffffffffffffffffffffffffff16036105e4576040517f08c379a00000000000000000000000000000000000000000000000000000000081526004016105db90610c03565b60405180910390fd5b6105ed8161066e565b50565b6105f861078d565b73ffffffffffffffffffffffffffffffffffffffff16610616610279565b73ffffffffffffffffffffffffffffffffffffffff161461066c576040517f08c379a000000000000000000000000000000000000000000000000000000000815260040161066390610c6f565b60405180910390fd5b565b6000600160009054906101000a900473ffffffffffffffffffffffffffffffffffffffff16905081600160006101000a81548173ffffffffffffffffffffffffffffffffffffffff021916908373ffffffffffffffffffffffffffffffffffffffff1602179055508173ffffffffffffffffffffffffffffffffffffffff168173ffffffffffffffffffffffffffffffffffffffff167f8be0079c531659141344cd1fd0a4f28419497f9722a3daafe3b4186f6b6457e060405160405180910390a35050565b600260005403610779576040517f08c379a000000000000000000000000000000000000000000000000000000000815260040161077090610cdb565b60405180910390fd5b6002600081905550565b6001600081905550565b600033905090565b600080fd5b600080fd5b600073ffffffffffffffffffffffffffffffffffffffff82169050919050565b60006107ca8261079f565b9050919050565b6107da816107bf565b81146107e557600080fd5b50565b6000813590506107f7816107d1565b92915050565b6000819050919050565b610810816107fd565b811461081b57600080fd5b50565b60008135905061082d81610807565b92915050565b600080fd5b600080fd5b600080fd5b60008083601f84011261085857610857610833565b5b8235905067ffffffffffffffff81111561087557610874610838565b5b6020830191508360018202830111156108915761089061083d565b5b9250929050565b6000806000806000608086880312156108b4576108b3610795565b5b60006108c2888289016107e8565b95505060206108d3888289016107e8565b94505060406108e48882890161081e565b935050606086013567ffffffffffffffff8111156109055761090461079a565b5b61091188828901610842565b92509250509295509295909350565b60007fffffffff0000000000000000000000000000000000000000000000000000000082169050919050565b61095581610920565b82525050565b6000602082019050610970600083018461094c565b92915050565b60006020828403121561098c5761098b610795565b5b600061099a8482850161081e565b91505092915050565b6109ac816107bf565b82525050565b60006020820190506109c760008301846109a3565b92915050565b6109d6816107fd565b82525050565b60006020820190506109f160008301846109cd565b92915050565b60008060408385031215610a0e57610a0d610795565b5b6000610a1c858286016107e8565b9250506020610a2d8582860161081e565b9150509250929050565b6000606082019050610a4c60008301866109a3565b610a5960208301856109cd565b610a6660408301846109a3565b949350505050565b600060208284031215610a8457610a83610795565b5b6000610a92848285016107e8565b91505092915050565b600082825260208201905092915050565b7f43616e6e6f742052656365697665204e465473204469726563746c7900000000600082015250565b6000610ae2601c83610a9b565b9150610aed82610aac565b602082019050919050565b60006020820190508181036000830152610b1181610ad5565b9050919050565b600081519050610b27816107d1565b92915050565b600060208284031215610b4357610b42610795565b5b6000610b5184828501610b18565b91505092915050565b6000606082019050610b6f60008301866109a3565b610b7c60208301856109a3565b610b8960408301846109cd565b949350505050565b7f4f776e61626c653a206e6577206f776e657220697320746865207a65726f206160008201527f6464726573730000000000000000000000000000000000000000000000000000602082015250565b6000610bed602683610a9b565b9150610bf882610b91565b604082019050919050565b60006020820190508181036000830152610c1c81610be0565b9050919050565b7f4f776e61626c653a2063616c6c6572206973206e6f7420746865206f776e6572600082015250565b6000610c59602083610a9b565b9150610c6482610c23565b602082019050919050565b60006020820190508181036000830152610c8881610c4c565b9050919050565b7f5265656e7472616e637947756172643a207265656e7472616e742063616c6c00600082015250565b6000610cc5601f83610a9b565b9150610cd082610c8f565b602082019050919050565b60006020820190508181036000830152610cf481610cb8565b905091905056fea2646970667358221220c3e1ca30c23c6da979edee0bef099913d0833eeb023a350f3cb5f265c5f4752764736f6c63430008110033",
  "immutableReferences": {},
  "source": "pragma solidity ^0.8.17;\n\n\nimport \"@openzeppelin/contracts/token/ERC721/IERC721Receiver.sol\";\nimport \"@openzeppelin/contracts/token/ERC721/IERC721.sol\";\nimport \"@openzeppelin/contracts/security/ReentrancyGuard.sol\";\nimport \"@openzeppelin/contracts/access/Ownable.sol\";\n\n\ncontract Custody is ReentrancyGuard, Ownable {\n\n    uint256 public fees = 0.0000075 ether;\n    \n\n    struct CustodyData {\n        address nftContract;\n        uint tokenId;\n        address owner;\n    }\n\n    mapping(uint => CustodyData) public holdCustody;\n\n    event NFTCustody (\n        uint indexed tokenId,\n        address holder\n    );\n\n    constructor() {\n\n    }\n\n\n    function depositNFT(address _nft_contract, uint _tokenId) public payable nonReentrant {\n        require(msg.value == fees);\n        require(IERC721(_nft_contract).ownerOf(_tokenId) == msg.sender);\n        require(holdCustody[_tokenId].tokenId == 0);\n        IERC721(_nft_contract).transferFrom(msg.sender, address(this), _tokenId);\n        holdCustody[_tokenId] = CustodyData(_nft_contract, _tokenId, msg.sender);\n    }\n\n    function releaseNFT(uint _tokenId) public onlyOwner {\n\n    }\n\n     function onERC721Received(\n        address,\n        address from,\n        uint256,\n        bytes calldata\n    ) external pure returns (bytes4) {\n      require(from == address(0x0), \"Cannot Receive NFTs Directly\");\n      return IERC721Receiver.onERC721Received.selector;\n    }\n\n}",
  "sourcePath": "/Users/sebastiancaso/Documents/crypto/nft-bridge/coh-nft-bridge/contracts/Custody.sol",
  "compiler": {
    "name": "solc",
    "version": "0.8.17+commit.8df45f5f.Emscripten.clang"
  },
  "schemaVersion": "3.4.11",
  "updatedAt": "2023-01-16T19:58:10.264Z",
  "devdoc": {
    "kind": "dev",
    "methods": {
      "owner()": {
        "details": "Returns the address of the current owner."
      },
      "renounceOwnership()": {
        "details": "Leaves the contract without owner. It will not be possible to call `onlyOwner` functions anymore. Can only be called by the current owner. NOTE: Renouncing ownership will leave the contract without an owner, thereby removing any functionality that is only available to the owner."
      },
      "transferOwnership(address)": {
        "details": "Transfers ownership of the contract to a new account (`newOwner`). Can only be called by the current owner."
      }
    },
    "version": 1
  },
  "userdoc": {
    "kind": "user",
    "methods": {},
    "version": 1
  }
}